00000000000000030101AFP FUTURO DE BOLIVIA         
00000000000000030101AFP PREVISION                 
00000000000000030101CACSEL                        
00000000000000030101SINDICATO DE TRABAJADORES EMPR
00000000000000090101SINDICATO DE TRABAJADORES ENDE
00000000085527930101MOSQUERA  FELIX               
00000000517946030101PALOMO POMA ALEX RUVEN        
00000016013002930101LACTEOSBOL                    
00000016820602490101EBA                           
00000102301302230101CAJA PETROLERA DE SALUD       
00000102841502030101BANCO UNION S.A.              
