000000004202022ACHIMO                   NAVI                                              CAIN                                              M020219840045228632                        
000000004470102AGUILAR                  CUSICANQUI                                        JOAQUIN                  GARY                     M070319770033958907                        
000000006144098ALARCON                  ALARCON                                           FLAVIA                   ANTONIETA                F100519890041977154                        
000000003081251ALCONZ                   BENAVIDEZ                                         MARLENE                                           F110519670033036482                        
000000002632315ALFARO                   LOAYZA                                            MARIA                    TERESA                   F180819650001129156                        
000000004510395ALMANZA                  CABRERA                                           MARIA                    BLANCA                   F051019780033955761                        
000000000952134ANDIA                    GIL                                               JOSE                     RONALD                   M021219570001440883                        
000000003099414ANDRADE                  DAVILA                                            GUSTAVO                  MARTIN                   M010619710037042336                        
000000003596872ANEYBA                   IVANOVIC                                          GILKA                    WARA                     F281019670040541095                        
000000000810986ANGULO                   REYNAGA                                           RICARDO                  AUGUSTO                  M200619510022288031                        
000000004329789APAZA                    TICONA                                            IRINEO                   NESTOR                   M210719740001697869566099                  
000000002406485ARANIBAR                 CHAVEZ                                            BEATRIZ                  LUISA                    F140619640035284389                        
000000003314456AYAVIRI                  VILLEGAS                                          DANIEL                   HENRY                    M031019700033463232                        
000000003623123AYMA                     RODRIGUEZ                                         MARIO                    CESAR                    M150419690002442401                        
000000004851683BANDA                    LUNA                                              JOHNNY                   MANOLO                   M140319780037453816                        
000000001764275BENAVIDES                OPE                                               JUAN                     DAVID                    M110419730035399260586440                  
000000003770831BERAMENDI                ORELLANA                                          MARVIN                   VICENTE                  M180819740033790012                        
000000005169964BRAÑEZ                   SAAVEDRA                                          HORACIO                  BRAYAN                   M161019820041596754                        
000000004414796CACERES                  MOREIRA                                           HANS                     JURGEN                   M170919760033890444                        
000000008401656CAHUANA                  CONDORI                                           JOSE                     MILTON                   M100619940043798974                        
000000003504972CALIZAYA                 CHACA                                             EFRAIN                   OMAR                     M060519710025732420471752                  
000000004414461CAMACHO                  TERAN                                             GERBERTH                 CRISTIAN                 M201019750035272478                        
000000003012804CARDENAS                 CORDOVA                                           JOHNNY                   FERNANDO                 M300419640027761472                        
000000003754990CARREÑO                  MERCADO                                           DAVID                    JORGE                    M190119700004198591473085                  
000000005291890CAYO                     LANCEA                                            RUBEN                                             M191119810041482463                        
000000003757088CESPEDEZ                 AMURRIO                                           EDWIN                                             M140219740030648397                        
000000004013122CHAVEZ                   NAVARRO                                           JUAN                     GABRIEL                  M260619870039688410                        
000000004076151CHINO                    ROJAS                                             JORGE                                             M120819830039571300                        
000000003417050CHOQUE                   FLORES                                            YASSIR                   ISRAEL                   M280219750035309131342597                  
000000003590483CLAROS                   ROJAS                                             PATRICIA                 LILIANA                  F121019730033393059                        
000000004450657CLAURE                   ARACENA                                           GRACE                    PATRICIA                 F160319780040392430                        
000000003693620COPA                     CAYO                                              CARLOS                                            M280319700033911071                        
000000001370502COPA                     LOPEZ                                             VIDAL                                             M22041964000355374721128                   
000000002692604CRUZ                     COLQUE                                            GERMAN                                            M240919630006466205205183                  
000000007319833CRUZ                     HUANCA                                            EDWIN                                             M170719890043311441                        
000000002914344DELGADILLO               GONZALES                                          JOSE                     LUIS                     M260919640006901165304785                  
000000005213524DIAZ                     PANTOJA                                           MANUEL                   ANTONIO                  M271219830037887336                        
000000004213033DOMINGUEZ                AGUADA                                            ABDUL                    FREDY                    M030619910040013908                        
000000000959934ENCINAS                  MORATO                                            ANTONIO                                           M120619510007191996                        
000000004417820ENCINAS                  VILLCA                                            FRANKLIN                 GONZALO                  M260119750036303586                        
000000003786262ESCOBAR                  GUARACHI                                          ROBERTO                                           M080619700032244642                        
000000002868347ESCOBAR                  SELEME                                            MARCO                    ANTONIO                  M020719640007310092                        
000000003137460ESCRIVA                  VARGAS                                            TERESA                   GUADALUPE                F011119710007320036                        
000000006466668FERRUFINO                OLMOS                                             EDUARDO                                           M090319870006466668153238                  
000000003078110FLORES                   ROCHA                                             JUAN                     RAMIRO                   M270619680030371961392343                  
000000008854526FLORES                   TORRICO                                           ISMAEL                                            M020919860039915281897834                  
000000000936305FUERTES                  LAZCANO                                           JUAN                     CARLOS                   M061019640008204196                        
000000005151886GARCIA                   ARAUCO                                            GUALBERTO                                         M110719750035286052                        
000000002899775GARCIA                   DE LIJERON                                        ROSA                     JAQUELINE                F290819650008475908                        
000000003622065GARCIA                   VARGAS                                            JAVIER                                            M021219690026793076                        
000000005161700GOMEZ                    IPORRE                                            RONALD                   CHRISTIAN                M160819790040419681008475                  
000000004538011GONZALES                 LOPEZ                                             MAURICIO                 CRISTHIAM                M240819800038258274                        
000000001930623GRANDILLERT              ANTEZANA                                          MARCELO                  MAURICIO                 M240819770036197181                        
000000006431024GUTIERREZ                ACHA                                              LITZI                                             F150419850041472411                        
000000001760686HERRERA                  ARTEAGA                                           IVANKA                   MARGARITA                F110319680009372829                        
000000003482063HUANQUIRI                QUISPE                                            ROGELIO                                           M240619710009699764456860                  
000000004203445HURTADO                  FERNANDEZ                                         JUAN                     CAROL                    M240619920045959249                        
000000006782273IÑO                      QUISBERT                                          JOSE                     LUIS                     M040119880043849830                        
000000004800059JIMENO                   BELTRAN                                           MARCO                    ANTONIO                  M090619770033699902                        
000000003099304JOANIQUINA               BUSTILLOS                                         DELSEN                                            M231219670034239601                        
000000000803131LEAÑO                    PADILLA                                           JOSE                     LUIS                     M300619500010653533                        
000000007596741LIMPIAS                  ALVAREZ                                           ROLANDO                                           M181119780042947637                        
000000004901227LUNA                     OVANDO                                            JAIME                    RODRIGO                  M290619800035348422                        
000000010810697LURICI                   SIVIORA                                           ROBERT                                            M040519880042947649                        
000000004884164MACERES                  DEL CARPIO                                        MARIANA                  ANDREA                   F121019800034083650                        
000000002879279MACHACA                  RODRIGUEZ                                         AMALIA                   TERESA                   F100719640011420595                        
000000006473021MALDONADO                TORRICO                                           DANIELA                                           F021119860039921955                        
000000004897781MAMANI                   APAZA                                             EDUARDO                  WILLIAM                  M150519810034555031                        
000000003768862MEJÍA                    SERRANO                                           MIRIAM                   SUSANA                   F010419760026510662                        
000000002045701MERCADO                  ARAMAYO                                           GUILLERMO                ARMANDO                  M100219530012940549IPM-2442-70             
000000003734545MERCADO                  GARCIA                                            NEREIDA                  GABRIELA                 F271219740100554465                        
000000005270248MEZA                     MENDIETA                                          FELIX                    CLAUDIO                  M150619820034305786                        
000000004886972MOLINA                   RUIZ                                              CAMILO                                            M140719760031866098                        
000000004433413MONTAÑO                  DE LA FUENTE                                      SERGIO                   MAURICIO                 M090619800034560233                        
000000003831838MONTAÑO                  RODRIGUEZ                                         MARIA                    GRETHEL                  F120919710033422722                        
000000001893812MORALES                  RAINOFF                                           GUILLERMO                                         M050519570013550241                        
000000000855279MOSQUERA                                                                   FELIX                                             M231119530000310931                        
000000003459316MURIEL                   CONDORI                                           OSCAR                    ENRRIQUE                 M180419710033879898                        
000000006096339NINA                     RAMIREZ                                           LUIS                     FERNANDO                 M281219820041424876                        
000000003023880NOVILLO                  AGUILAR                                           EDMUNDO                                           M280119630031874460                        
000000005771260NUÑEZ                    MEDINA                                            CECILIA                  SOFIA                    F211019880043167780                        
000000003729038ORELLANA                 GONZALES                                          JHIMMY                   SANDRO                   M110219710014231323                        
000000003720522ORTEGA                   VASQUEZ                                           JHONNY                   MILTON                   M08061968001435279558625                   
000000009269387PACO                     RAMOS                                             ALEX                     AMERICO                  M140419880045209868                        
000000005179460PALOMO                   POMA                                              ALEX                     RUVEN                    M020519800031978848693875                  
000000004410789PANIAGUA                 CHAMBI                                            YONI                                              M090319790033019356015863                  
000000003617322PANTOJA                  ROCHA                                             DORIAN                   VLADIMIR                 M161119690014790476                        
000000003025505PARDO                    IRIARTE                                           JAVIER                   ROLANDO                  M050119650014844953                        
000000003782731PARRA                    FLORES                                            ERICK                    DAVID                    M151119680014931035PM-0184327              
000000002991007PAZ                      CASTRO                                            EDUARDO                                           M060219640015049462                        
000000001069089PEREDO                   ECHAZU                                            ROBERTO                                           M201219610036876367                        
000000003137819PEREZ                    ARAMAYO                                           FRANCISCO                ADOLFO                   M270419630015246553                        
000000005225966PINTO                    MENESES                                           SUSAN                                             F270719820039548260                        
000000004461894PONCE                    GONZALES                                          ADALIT                   MILTON                   M280219770033477644                        
000000004870962PUCHO                    LLANQUECHOQUE                                     GUILLERMO                GERMAN                   M100219790038592836                        
000000004215029QUINO                    CHAMACA                                           GERSON                   JAVIER                   M101219920040172156                        
000000000998945QUINTANILLA              GUEVARA                                           PATRICIA                 MARGARITA                F230819670015914938                        
000000005193215QUIROGA                  ALBA                                              CLAUDIA                                           F100519800039921918                        
000000005476332QUISPE                   JUSTO                                             DANIEL                                            M150819840040242924                        
000000000568138RAMIREZ                  ESPINOZA                                          PERCY                    WILLY                    M170719460016477340                        
000000003518117RIOS                     RODRIGUEZ                                         ERICK                    CIFFRIT                  M230719750034087242                        
000000009267511ROCHA                    CRESPO                                            YORDY                                             M060319940042947625                        
000000003124516ROCHA                    ECHEVERRIA                                        DAVID                    JHON                     M201219710032230400                        
000000003064016ROCHA                    PEREZ                                             EDGAR                    FELIPE                   M260519640033422758                        
000000004502182RODRIGUEZ                AGUILAR                                           EYVERT                   ROMAN                    M280119780040208047                        
000000002862575RODRIGUEZ                COSIO                                             JOSE                     DAVID                    M210319630026529233                        
000000004022515RODRIGUEZ                VILLCA                                            ALFREDO                                           M100519790037147912675102                  
000000004415402ROJAS                    ESCOBAR                                           JOSE                     GUSTAVO                  M120119750035286027638316                  
000000002900854ROJAS                    FERREL                                            JOHNNY                   RAMIRO                   M280619620017453471                        
000000004200223ROJAS                    QUISBERT                                          JOSE                     LUIS                     M090719830037859468126546                  
000000005198940ROMAY                    BORTOLINI                                         JOSE                     MARIA                    M021019800039154105                        
000000005648577ROMERO                   ARO                                               OSVALDO                  WALTER                   M131019860038786710921731                  
000000004424966SAGARNAGA                PEREYRA                                           LUIS                     FERNANDO                 M250919790035624024                        
000000003605581SALDIAS                  DELGADO                                           EDWIN                    ROBERTO                  M080619640033529322                        
000000003753027SANCHEZ                  FLORES                                            ZENON                                             M251019700026333843                        
000000003621269SANCHEZ                  GUZMAN                                            FELIPE                                            M240519690018228203                        
000000003588892SANCHEZ                  LOPEZ                                             RAMIRO                   ANDRES                   M180519690032015380                        
000000005903134SANTANDER                VILLARROEL                                        JIMMY                    OMAR                     M150819840035191843899108                  
000000004467869SARAVIA                  HUMEREZ                                           ZOBEIDA                  LENA                     F301119760039922546                        
000000004411903SERNA                    REVOLLO                                           VLADIMIR                                          M160419800036467820                        
000000003742365SIÑANIZ                  COBA                                              MARITZA                  NOEMI                    F171019710033547351                        
000000003720627SOLIS                    MARQUINA                                          JULIO                    CESAR                    M120419690018942362358711                  
000000002894101SOLORZANO                ROCHA                                             ESTELA                   JACQUELINE               F170919650018888781                        
000000002875093SUAREZ                   AMORETTI                                          LUIS                     EMILIO                   M060119640019120035                        
000000007779101TABOADA                  ALVEZ                                             EDERSON                                           M230219870039520675                        
000000000953021TEJADA                   FERRUFINO                                         ALBERTO                  SERGIO                   M300819570010661921                        
000000004181581UBANO                    BATE                                              LAYONER                                           M071219770031739386                        
000000003778798UDAETA                   ORELLANA                                          EDDSON                   MIRKO                    M250919730020153430513014                  
000000003768663URQUIDI                  HINOJOSA                                          EDWARD                   ANTONIO                  M020219720032984418                        
000000004288952UZQUIANO                 ALCOREZA                                          JOSE                     MANUEL                   M230319750033301441                        
000000004702349VACA                     PERALTA                                           RAUL                                              M210519780035191855703061                  
000000003017631VALLEJO                  BELTRAN                                           ENZO                     MAURICIO                 M040719650020497295                        
000000003131710VARGAS                   CORDOVA                                           JUAN                     CARLOS                   M290519650020619236                        
000000005916650VARGAS                   MERCADO                                           ROXANA                                            F101019840036977020                        
000000002551314VARGAS                   RAMOS                                             ISIDORO                  RUBEN                    M040419640020722281                        
000000004127223VASQUEZ                  BAZOALTO                                          JUAN                     VEIMAR                   M130219810040381250                        
000000007962862VASQUEZ                  FLORES                                            DARIO                                             M060719880035508450222341                  
000000001320627VEGA                     SEGOVIA                                           FRANCISCO                                         M130819650020919487                        
000000001384792VELARDE                  SANABRIA                                          OSVALDO                                           M060319640020992075                        
000000002139897VERA                     GONZALES                                          ROLANDO                  JAVIER                   M230519640021154211                        
000000003732124VILLAZON                 MORALES                                           ARMINDA                                           F280519730033654372                        
000000007349314WIELER                   LLANOS                                            GERMAN                                            M210119450030622748                        
000000000960278ZAMORA                   CASTAÑON                                          LUZ                      CYNTHIA                  F290919630021920072                        
000000004467420ZURITA                   PORCEL                                            NEIDA                    JIMENA                   F040219770033190732                        
