00000000000000130101CAJA DE SALUD CORDES          
00000000000000130101SINDICATO DE TRABAJADORES EMPR
00000000000000290101SINDICATO DE TRABAJADORES ENDE
00000000085527930101MOSQUERA  FELIX               
00000000480005920101JIMENO BELTRAN MARCO ANTONIO  
00000000517946030101PALOMO POMA ALEX RUVEN        
00000016013002930101LACTEOSBOL                    
00000016820602420101EBA                           
00000016820602490101EBA                           
00000100680302830101AFP FUTURO DE BOLIVIA         
00000102291302830101CACSEL                        
00000102301302230101CAJA PETROLERA DE SALUD       
00000102833902530101AFP PREVISION                 
00000102841502030101BANCO UNION S.A.              
