000000004470102AGUILAR                  CUSICANQUI                                        JOAQUIN                  GARY                     M070319770033958907                        
000000004526386ALARCON                  ROSSELL                                           ALAIN                                             M070619770036321825                        
000000003081251ALCONZ                   BENAVIDEZ                                         MARLENE                                           F110519670033036482                        
000000004510395ALMANZA                  CABRERA                                           MARIA                    BLANCA                   F051019780033955761                        
000000000952134ANDIA                    GIL                                               JOSE                     RONALD                   M021219570001440883                        
000000003099414ANDRADE                  DAVILA                                            GUSTAVO                  MARTIN                   M010619710037042336                        
000000000810986ANGULO                   REYNAGA                                           RICARDO                  AUGUSTO                  M200619510022288031                        
000000004329789APAZA                    TICONA                                            IRINEO                   NESTOR                   M210719740001697869566099                  
000000002406485ARANIBAR                 CHAVEZ                                            BEATRIZ                  LUISA                    F140619640035284389                        
000000003314456AYAVIRI                  VILLEGAS                                          DANIEL                   HENRY                    M031019700033463232                        
000000003623123AYMA                     RODRIGUEZ                                         MARIO                    CESAR                    M150419690002442401                        
000000001864381BALDIVIEZO               AGUILAR                                           HERNAN                                            M030719710100167196                        
000000003511659BAPTISTA                 MORALES                                           JORGE                                             M310819740034705260                        
000000001764275BENAVIDES                OPE                                               JUAN                     DAVID                    M110419730035399260586440                  
000000003770831BERAMENDI                ORELLANA                                          MARVIN                   VICENTE                  M180819740033790012                        
000000005169964BRAÑEZ                   SAAVEDRA                                          HORACIO                  BRAYAN                   M161019820041596754                        
000000004414796CACERES                  MOREIRA                                           HANS                     JURGEN                   M170919760033890444                        
000000003504972CALIZAYA                 CHACA                                             EFRAIN                   OMAR                     M060519710025732420471752                  
000000004414461CAMACHO                  TERAN                                             GERBERTH                 CRISTIAN                 M201019750035272478                        
000000003012804CARDENAS                 CORDOVA                                           JOHNNY                   FERNANDO                 M300419640027761472                        
000000003754990CARREÑO                  MERCADO                                           DAVID                    JORGE                    M190119700004198591473085                  
000000002868172CARVALLO                 CACERES                                           JOSE                     LUIS                     M220419580004267813                        
000000005291890CAYO                     LANCEA                                            RUBEN                                             M191119810041482463                        
000000003757088CESPEDEZ                 AMURRIO                                           EDWIN                                             M140219740030648397                        
000000004013122CHAVEZ                   NAVARRO                                           JUAN                     GABRIEL                  M260619870039688410                        
000000004076151CHINO                    ROJAS                                             JORGE                                             M120819830039571300                        
000000003417050CHOQUE                   FLORES                                            YASSIR                   ISRAEL                   M280219750035309131342597                  
000000003590483CLAROS                   ROJAS                                             PATRICIA                 LILIANA                  F121019730033393059                        
000000004450657CLAURE                   ARACENA                                           GRACE                    PATRICIA                 F160319780040392430                        
000000003693620COPA                     CAYO                                              CARLOS                                            M280319700033911071                        
000000001370502COPA                     LOPEZ                                             VIDAL                                             M22041964000355374721128                   
000000003004557CORDOVA                  SALINAS                                           RENE                     CESAR                    M170619640006207674                        
000000002692604CRUZ                     COLQUE                                            GERMAN                                            M240919630006466205I-B 0506281             
000000002914344DELGADILLO               GONZALES                                          JOSE                     LUIS                     M260919640006901165304785                  
000000005213524DIAZ                     PANTOJA                                           MANUEL                   ANTONIO                  M271219830037887336                        
000000000959934ENCINAS                  MORATO                                            ANTONIO                                           M120619510007191996                        
000000003786262ESCOBAR                  GUARACHI                                          ROBERTO                                           M080619700032244642                        
000000002868347ESCOBAR                  SELEME                                            MARCO                    ANTONIO                  M020719640007310092                        
000000003137460ESCRIVA                  VARGAS                                            TERESA                   GUADALUPE                F011119710007320036                        
000000006408031FERREIRA                 ESPINOZA                                          EDSON                    CARLOS                   M230719850035417501                        
000000006466668FERRUFINO                OLMOS                                             EDUARDO                                           M090319870006466668                        
000000003025346FIORILO                  LOZADA                                            AMERICO                                           M301119800036962417                        
000000003769744FLORES                   LOPEZ                                             WILSON                   JORGE                    M260219720039682183                        
000000003078110FLORES                   ROCHA                                             JUAN                     RAMIRO                   M270619680030371961392343                  
000000008854526FLORES                   TORRICO                                           ISMAEL                                            M020919860039915281                        
000000000936305FUERTES                  LAZCANO                                           JUAN                     CARLOS                   M061019640008204196                        
000000005151886GARCIA                   ARAUCO                                            GUALBERTO                                         M110719750035286052                        
000000002899775GARCIA                   DE LIJERON                                        ROSA                     JAQUELINE                F290819650008475908                        
000000003622065GARCIA                   VARGAS                                            JAVIER                                            M021219690026793076                        
000000005161700GOMEZ                    IPORRE                                            RONALD                   CHRISTIAN                M160819790040419681                        
000000004538011GONZALES                 LOPEZ                                             MAURICIO                 CRISTHIAM                M240819800038258274                        
000000001930623GRANDILLERT              ANTEZANA                                          MARCELO                  MAURICIO                 M240819770036197181                        
000000006087482GUARACHI                 CONDORI                                           VERONICA                 RUTH                     F260519830036932346                        
000000006431024GUTIERREZ                ACHA                                              LITZI                                             F150419850041472411                        
000000001760686HERRERA                  ARTEAGA                                           IVANKA                   MARGARITA                F110319680009372829                        
000000003482063HUANQUIRI                QUISPE                                            ROGELIO                                           M240619710009699764I-A-01049-89            
000000000998813IPORRE                   SALGUERO                                          JORGE                    ARTURO                   M250919600010008056                        
000000004539889JALDIN                   RODRIGUEZ                                         MARY                     LUZ                      F050619790039922391                        
000000004800059JIMENO                   BELTRAN                                           MARCO                    ANTONIO                  M090619770033699902                        
000000003099304JOANIQUINA               BUSTILLOS                                         DELSEN                                            M231219670034239601                        
000000004292985JURADO                   QUISBERT                                          ENRIQUE                  ALBERTO                  M120119770033904923                        
000000000803131LEAÑO                    PADILLA                                           JOSE                     LUIS                     M300619500034083650                        
000000004901227LUNA                     OVANDO                                            JAIME                    RODRIGO                  M290619800035348422                        
000000004884164MACERES                  DEL CARPIO                                        MARIANA                  ANDREA                   F121019800034083650                        
000000002879279MACHACA                  RODRIGUEZ                                         AMALIA                   TERESA                   F100719640011420595                        
000000006473021MALDONADO                TORRICO                                           DANIELA                                           F021119860039921955                        
000000004897781MAMANI                   APAZA                                             EDUARDO                  WILLIAM                  M150519810034555031                        
000000003768862MEJÍA                    SERRANO                                           MIRIAM                   SUSANA                   F010419760026510662                        
000000002045701MERCADO                  ARAMAYO                                           GUILLERMO                ARMANDO                  M100219530012940549IPM-2442-70             
000000003734545MERCADO                  GARCIA                                            NEREIDA                  GABRIELA                 F271219740100554465                        
000000005270248MEZA                     MENDIETA                                          FELIX                    CLAUDIO                  M150619820034305786                        
000000000685134MITMA                    CHOQUE                                            DONATO                                            M070419550034352594                        
000000004886972MOLINA                   RUIZ                                              CAMILO                                            M140719760031866098                        
000000001932618MONASTERIO               CUELLAR                                           FABIOLA                                           F220119770013865006                        
000000004433413MONTAÑO                  DE LA FUENTE                                      SERGIO                   MAURICIO                 M090619800034560233                        
000000003831838MONTAÑO                  RODRIGUEZ                                         MARIA                    GRETHEL                  F120919710033422722                        
000000003616627MONTAÑO                  UGARTE                                            JUAN                     MANUEL                   M250119830035872391                        
000000001893812MORALES                  RAINOFF                                           GUILLERMO                                         M050519570013550241                        
000000000855279MOSQUERA                                                                   FELIX                                             M231119530000310931                        
000000003459316MURIEL                   CONDORI                                           OSCAR                    ENRRIQUE                 M180419710033879898                        
000000006096339NINA                     RAMIREZ                                           LUIS                     FERNANDO                 M281219820041424876                        
000000003729038ORELLANA                 GONZALES                                          JHIMMY                   SANDRO                   M110219710014231323                        
000000003720522ORTEGA                   VASQUEZ                                           JHONNY                   MILTON                   M08061968001435279558625                   
000000002890476ORTIZ                    VILLARROEL                                        JUAN                     RAMIRO                   M300619600040167744                        
000000004418797PACO                     ESCOBAR                                           RAMIRO                                            M110519740033718957                        
000000005179460PALOMO                   POMA                                              ALEX                     RUVEN                    M020519800031978848                        
000000004410789PANIAGUA                 CHAMBI                                            YONI                                              M090319790033019356B010433-97              
000000003617322PANTOJA                  ROCHA                                             DORIAN                   VLADIMIR                 M161119690014790476                        
000000003025505PARDO                    IRIARTE                                           JAVIER                   ROLANDO                  M050119650014844953                        
000000003782731PARRA                    FLORES                                            ERICK                    DAVID                    M151119680014931035PM-0184327              
000000005241984PARRA                    MOYA                                              JOSE                     FERNANDO                 M050619820040066538                        
000000001069089PEREDO                   ECHAZU                                            ROBERTO                                           M201219610036876367                        
000000003137819PEREZ                    ARAMAYO                                           FRANCISCO                ADOLFO                   M270419630015246553                        
000000005225966PINTO                    MENESES                                           SUSAN                                             F270719820039548260                        
000000004461894PONCE                    GONZALES                                          ADALIT                   MILTON                   M280219770033477644                        
000000004870962PUCHO                    LLANQUECHOQUE                                     GUILLERMO                GERMAN                   M100219790038592836                        
000000005193215QUIROGA                  ALBA                                              CLAUDIA                                           F100519800039921918                        
000000000568138RAMIREZ                  ESPINOZA                                          PERCY                    WILLY                    M170719460016477340                        
000000004420896RAMIREZ                  TORRICO                                           FRANCISCO                JAVIER                   M041019750040392442                        
000000003518117RIOS                     RODRIGUEZ                                         ERICK                    CIFFRIT                  M230719750034087242                        
000000003064016ROCHA                    PEREZ                                             EDGAR                    FELIPE                   M260519640033422758                        
000000004502182RODRIGUEZ                AGUILAR                                           EYVERT                   ROMAN                    M280119780040208047                        
000000004022515RODRIGUEZ                VILLCA                                            ALFREDO                                           M100519790037147912                        
000000008666780ROJAS                    CHOQUE                                            GUALBERTO                                         M060619920039540662                        
000000004415402ROJAS                    ESCOBAR                                           JOSE                     GUSTAVO                  M120119750035286027638316                  
000000004200223ROJAS                    QUISBERT                                          JOSE                     LUIS                     M090719830037859468                        
000000005198940ROMAY                    BORTOLINI                                         JOSE                     MARIA                    M021019800039154105                        
000000005648577ROMERO                   ARO                                               OSVALDO                  WALTER                   M131019860038786710                        
000000004424966SAGARNAGA                PEREYRA                                           LUIS                     FERNANDO                 M250919790035624024                        
000000003605581SALDIAS                  DELGADO                                           EDWIN                    ROBERTO                  M080619640033529322                        
000000003753027SANCHEZ                  FLORES                                            ZENON                                             M251019700026333843                        
000000003621269SANCHEZ                  GUZMAN                                            FELIPE                                            M240519690018228203                        
000000003588892SANCHEZ                  LOPEZ                                             RAMIRO                   ANDRES                   M180519690032015380                        
000000005903134SANTANDER                VILLARROEL                                        JIMMY                    OMAR                     M150819840035191843899108                  
000000004467869SARAVIA                  HUMEREZ                                           ZOBEIDA                  LENA                     F301119760039922546                        
000000004411903SERNA                    REVOLLO                                           VLADIMIR                                          M160419800036467820                        
000000003742365SIÑANIZ                  COBA                                              MARITZA                  NOEMI                    F171019710033547351                        
000000003720627SOLIS                    MARQUINA                                          JULIO                    CESAR                    M120419690018942362358711                  
000000003556438SOLIZ                    POVEDA                                            VEIMAR                   JHIMMY                   M101019770036740056                        
000000002894101SOLORZANO                ROCHA                                             ESTELA                   JACQUELINE               F170919650018888781                        
000000002875093SUAREZ                   AMORETTI                                          LUIS                     EMILIO                   M060119640019120035                        
000000000953021TEJADA                   FERRUFINO                                         ALBERTO                  SERGIO                   M300819570010661921                        
000000001714032TITIBOCO                 YMANAREICO                                        ESPIRITU                                          M240119580033182668071016                  
000000004380103TRUJILLO                 LOPEZ                                             TORIBIO                                           M160419750039248264                        
000000003778798UDAETA                   ORELLANA                                          EDDSON                   MIRKO                    M250919730020153430                        
000000003768663URQUIDI                  HINOJOSA                                          EDWARD                   ANTONIO                  M020219720032984418                        
000000004288952UZQUIANO                 ALCOREZA                                          JOSE                     MANUEL                   M230319750033301441                        
000000004702349VACA                     PERALTA                                           RAUL                                              M210519780035191855703061                  
000000003017631VALLEJO                  BELTRAN                                           ENZO                     MAURICIO                 M040719650020497295                        
000000003131710VARGAS                   CORDOVA                                           JUAN                     CARLOS                   M290519650020619236                        
000000005916650VARGAS                   MERCADO                                           ROXANA                                            F101019840036977020                        
000000002551314VARGAS                   RAMOS                                             ISIDORO                  RUBEN                    M040419640020722281                        
000000003729580VARGAS                   VARGAS                                            JAIRO                    DANIEL                   M020219800037651171                        
000000007962862VASQUEZ                  FLORES                                            DARIO                                             M060719880035508450                        
000000001320627VEGA                     SEGOVIA                                           FRANCISCO                                         M130819650020919487                        
000000001384792VELARDE                  SANABRIA                                          OSVALDO                                           M060319640020992075                        
000000002139897VERA                     GONZALES                                          ROLANDO                  JAVIER                   M230519640021154211                        
000000003732124VILLAZON                 MORALES                                           ARMINDA                                           F280519730033654372                        
000000007349314WIELER                   LLANOS                                            GERMAN                                            M210119450030622748                        
000000002454232YAÑEZ                    LIZARAZU                                          ARTURO                   MANUEL                   M120319610010126651                        
000000000778882YRADY                                                                      EDGAR                                             M090819480000230492                        
000000005935309ZAMBRANA                 MENESES                                           MERCEDES                                          F151219830039922418                        
000000000960278ZAMORA                   CASTAÑON                                          LUZ                      CYNTHIA                  F290919630021920072                        
000000004467420ZURITA                   PORCEL                                            NEIDA                    JIMENA                   F040219770033190732                        
